S01100005A334146325F44454D4F2E73333719
S31500000000401A002081810100859600008996000033
S31500000010A70A02020002000004180FAC0064810166
S3150000002000000000000000000000000000000000CA
S31500000030000000003C730300000000000000000008
S315000000400000000000000000FFFFFFFFFFFFFFFFB2
S31500000050FFFFFFFFFFFFFFFFFFFFFFFFFFFFFFFFAA
S3150000006000E00F000000000000001000FFFFFFFF8F
S31500000070FFFFFFFF1C000000000000000000000062
S31500000080504D00205041002050410020504100209A
S31500000090401A002038A10300D8DC0200E01000203E
S311000000A0C010002000001000504D002091
S31500000200401A002081810100859600008996000031
S31500000210919600008D960000959600007D81010064
S315000002207D8101007D8101007D8101007D810100CC
S31500000230999600007D8101007D8101007D8101008C
S3150000024065B00000656D0100A999000010970000D7
S3150000025025680100D16D0100716D0100896D0100F5
S31500000260696D010099A7000065A8000095C500000A
S315000002706D170100109700001097000035850000EB
S31500000280109700001097000089A800001097000042
S3150000029010970000109700001097000010970000BC
S315000002A010970000109700001097000010970000AC
S315000002B0D56D01006D6D0100E5AD0000156E010004
S315000002C010970000115701001097000010970000CA
S315000002D0109700001097000010970000109700007C
S315000002E0109700001097000010970000109700006C
S315000002F0109700001097000010970000109700005C
S3110000030010970000109700007D8101009E
S3150000030CF8B500BFF8BC08BC9E467047F8B500BFF0
S3150000031CF8BC08BC9E46704710B5054C237833B91B
S3150000032C044B13B10448AFF300800123237010BDB6
S3150000033C34200020000000003C9B0300084B10B545
S3150000034C1BB108480849AFF300800848036803B995
S3150000035C10BD074B002BFBD0BDE81040184700BF63
S3150000036C000000003C9B03003820002034200020B5
S3150000037C00000000154B002B08BF134B9D46A3F540
S3150000038C803A00218B460F461348144A121A2DF058
S3150000039C16FC0F4B002B00D098470E4B002B00D0B1
S315000003AC98470020002104000D000D48002802D0BB
S315000003BC0C48AFF300802DF0C9FB2000290011F08A
S315000003CC0DFC2DF0AFFB00BF00000800401A00200A
S315000003DC00000000000000003420002050410020E6
S315000003EC000000000000000008B5012003F0B0FE7C
S315000003FC044B00221A7001200EF048FCBDE80840A0
S3150000040C03F095BEA82D002008B5012003F0A0FE30
S3150000041C044B00221A70012011F076FDBDE808404D
S3150000042C03F085BEB42D002008B501201FF0D4FCC6
S3150000043C02481FF047FC024B187008BDBCE00200D6
S3150000044CB02D002008B503F055FC012805D0034B50
S3150000045C1878BDE808401FF019BC08BDB02D002067
S3150000046C10B50C1E02D11FF09FFB02E003DB1FF040
S3150000047CA7FB002010BD022010BDB1F5000F02D263
S3150000048C0902FFF7EDBF0220704700002DE9F0418D
S3150000049C9846144B1B880026F5B29D420FD20C24AD
S315000004AC114F65437C197D5D85420BD165888D4264
S315000004BC08D12579954205D101F08AFA20B9022096
S315000004CCBDE8F0810136E7E7A0684146FFF7C8FFB3
S315000004DC0028F4D19DF8183063719DF81C30A37177
S315000004ECBDE8F081901A0020841A002013B514463A
S315000004FC00939DF81030019300222346FFF7C6FFA8
S3150000050C02B010BD07B500230093FFF7EFFF03B051
S3150000051C5DF804FB0D4BF0B51F880024E5B2BD4217
S3150000052C12D20C230A4E6B43F518F35C834209D1A5
S3150000053C6B888B4206D12B79934203D1AB68002092
S3150000054C1870F0BD0134E9E70220F0BD901A0020C6
S3150000055C841A00200022FFF7DDBF00002DE9F04FC2
S3150000056C1F4693B0FF23022F8046894614461C9ED5
S3150000057C9DF874A08DF81E3040F2B68033785A0779
S3150000058C05D5042F40F2B08096F804B001E096F839
S3150000059C02B000235A4A02EBC302DDB21279FF2ADB
S315000005AC04D001330A2BF5D1A2E0FF2512A90023B2
S315000005BC01F8293D207908AA02F01EFB50B1BDF8BE
S315000005CC2C3023809DF81F0003F0AAFD8DF81D002A
S315000005DCA8B192E0207901F00FFAFF2800F086808E
S315000005EC0590207903F0B4FD8DF81D00002840F02D
S315000005FC8480059B434800EB031043882380618865
S3150000060C23884FF6FF72B8F1000F08BF4A468DE8F3
S3150000061C060058460021524605F006FC18B1E38840
S3150000062C43F02003E380209B0D930DA80DF11D01D3
S3150000063C0E940F96ADF84090ADF842708DF844804C
S3150000064C8DF845A002F00FFB00284AD1304605F084
S3150000065C05FBA01D05F0F0FA40464946224605F07A
S3150000066C03FD80B2874214D80DF11E030193BDF829
S3150000067C783002939DF87C3003930096FBB240468B
S3150000068C4946224600F079FE209B8DF81D0023B9C1
S3150000069C12E074238DF81D300EE068B99DF81E200B
S315000006ACFF2A09D0092D9FBF154B03EBC5010A7113
S315000006BC209A98BF43F835209DF81D30BA2B08D1E7
S315000006CCE388DB0605D5002301208DF81D3003F0E9
S315000006DC17FB9DF81D3013B9112002F06FFA03F0C9
S315000006EC26FD9DF81D0008E0012006E0A32004E08D
S315000006FC209B002B3FF459AFB42013B0BDE8F08F0C
S3150000070C50200020E42D00200023054AD118FF209C
S3150000071C0871002199500833502BF6D1704700BF51
S3150000072C5020002070B586B00C460093012301932F
S3150000073C002305461646029303930A9B20810493D5
S3150000074C2946224633460320FFF708FF06B070BD44
S3150000075C13B500240094FFF7E5FF02B010BDF0B509
S3150000076C0D4685B01646044658B351B34AB3002716
S3150000077CF8B2694617F002FB20BB9DF80030032B3C
S3150000078C1AD19DF8012023799A4215D1BDF8022081
S3150000079C63889A4210D19DF805309DF8060003EB4C
S315000007AC002080B29DF804306371208121462A46D0
S315000007BC3346FFF7CDFF28B901370A2FD8D10020D1
S315000007CC00E0022005B0F0BD70B586B00646009379
S315000007DC0123019300230D461446029303930A9BAF
S315000007EC049331462A4623460620FFF7B7FE06B089
S315000007FC70BD13B500240094FFF7E6FF02B010BDE0
S3150000080CF0B502288BB006460D4614461F460AD193
S3150000081CC8B206A917F0B2FA98B99DF81930237127
S3150000082C9DF81C306371109B00930022119B019262
S3150000083C0292039204933046294622463B46FFF722
S3150000084C8DFE0BB0F0BD13B5049C009400240194EE
S3150000085CFFF7D6FF02B010BD2DE9F04306468BB06C
S3150000086C0F46904699460025E8B206A917F086FA77
S3150000087C044618BB9DF81830012B1AD19DF8192087
S3150000088C33799A4215D1BDF81A2073889A4210D141
S3150000089C9DF81C307371019002900390CDF8008086
S315000008ACCDF810900220A9B232463B46FFF756FE11
S315000008BC18B901350A2DD7D100E0044620460BB0F5
S315000008CCBDE8F083F0B587B0074614460E46684679
S315000008DC002116221D4603F031FBADF80C70ADF865
S315000008EC0A406EB10DF101003146082203F0CCFA34
S315000008FCBDF8143043F00203ADF81430002303E0C6
S3150000090C2DB1ADF812500C238DF8003007E04FF6E0
S3150000091CFB739C428CBF082400248DF80040BDF864
S3150000092C3430ADF80E306846BDF83030BDF83810AE
S3150000093C0F9AADF810300EF023FC07B0F0BD000096
S3150000094C07B5094A0346108831B90849084A03B065
S3150000095C5DF804EB04F066B80091064A064904F00B
S3150000096C61F803B05DF804FB4221002051E102005E
S3150000097CAB5D03004F5E030058E102007FB50546F0
S3150000098C0E4620F04DFD04460D4904202A4623460A
S3150000099C04F02AF88CB986B101238DF80E300323A6
S315000009AC009322464FF6FC70362103AB8DF80C40B3
S315000009BC8DF80D5006F0DEFF0446204604B070BDDF
S315000009CC65E10200FF2810B50C4604D10420044949
S315000009DC04F00AF8FE202146BDE81040FFF7CEBF12
S315000009EC7CE10200F8B51F460B8806460D461446F8
S315000009FC002B69D14A88110448BF63783449082012
S31500000A0C03F0F2FF6B8848F2040293421CD00ED816
S31500000A1C48F20102934223D048F20202934228D0B4
S31500000A2C132B33D16378A2782A4908202AE048F29E
S31500000A3C060293420CD018D348F22002934225D1D9
S31500000A4C0820254962781FE008202449244A1BE027
S31500000A5C08202249234A03F0E5FF0820224906E034
S31500000A6C0820224903F0C0FF10E021490820227912
S31500000A7C0AE0082019491F4A03F0D4FF6378A278CC
S31500000A8C1D49082003EB022203F0AEFF304629462F
S31500000A9C22463B4600F0C5FD70B922463B46304621
S31500000AAC294611F0F7F86A8848F221039A4203D1D5
S31500000ABC3046617802F0ABF86B88B3F5004F05D978
S31500000ACC082002F0DFF801E00020F8BD0120F8BD97
S31500000ADCB7E102002DE2020008E20200DCE10200AE
S31500000AECEDE10200F4E10200FAE1020044E2020048
S31500000AFC5EE2020080E2020085E202002DE9F04788
S31500000B0C88B00C4692469946BDF84050119E8046D8
S31500000B1C25F0A6FB628823881D49009207462A46C3
S31500000B2C022003F061FF8DF8088003940496ADF85B
S31500000B3C1450ADF816708DF818A08DF8199000F0B9
S31500000B4C8DFA8DF81A0000F08BFA8DF81B001AF04E
S31500000B5C9EF98DF81C0002A802F083F8A8B9384655
S31500000B6C214632462B4604F0B9FC70B9384621466C
S31500000B7C32462B46FFF736FF38B9019000972046D0
S31500000B8C414632462B4605F073F908B0BDE8F087AE
S31500000B9C96E202002DE9F74F0D9DBDF830609DF8E9
S31500000BAC38B08146884614461F46002B30D00420A8
S31500000BBC3E493F4A03F036FF238853B140F20912EF
S31500000BCC934208D03B493C4AB3F5827F18BF0A468C
S31500000BDC02E03A4A00E03A4A618804208DE8420075
S31500000BEC384903F01FFF238873B1022E0CD92B78DA
S31500000BFC354A364913F0010F354B4FF0040008BF48
S31500000C0C1A46AB7803F00EFF0420324903F0ECFED3
S31500000C1C0023314A02EBC3010979594502D152F836
S31500000C2C33A004E001330A2BF3D14FF0000A002362
S31500000C3C02EBC3010879584506D1FF220A71264AF0
S31500000C4C002142F8331002E001330A2BF0D147B9E8
S31500000C5C238833B9B4F90230002B02DB082001F0EB
S31500000C6CADFF012002F00EF855B12B78DB0707D546
S31500000C7C8DE8A000484641462246334601F06AF804
S31500000C8CBAF1000F06D08DE8A00048464146224630
S31500000C9C3346D04748464146224633460C950D9777
S31500000CAC03B0BDE8F04F01F0AEBF00BFE2E20200B8
S31500000CBCECE20200F5E30200D0E20200C9E2020017
S31500000CCCCDE20200F4E20200D3E2020023E30200CA
S31500000CDCDBE20200E77C030050200020962813B5C7
S31500000CEC04462FD005D8912827D094282AD09028AE
S31500000CFC07E0AF2804D8AB281DD298282BD121E0C9
S31500000D0CBC2828D100F0A4F91F4900901F4A204B9B
S31500000D1C042003F069FEBC2C08D11E49042003F004
S31500000D2C63FE01F0A8FF01F0A7FF01E027F0EAFC43
S31500000D3C01F0A2FF14E0912804D104201649134AAD
S31500000D4C134B03E01549114A154B042003F04CFED6
S31500000D5C04F0C5FE04E002201249224603F044FECC
S31500000D6C20460EF0F9FD20460FF017F8204607F046
S31500000D7C39FA30B10C49042002B0BDE8104003F03A
S31500000D8C33BE02B010BD00BF36E3020043E30200DF
S31500000D9C4AE3020053E3020071E302007AE3020025
S31500000DAC83E302008BE30200A3E3020013B5104CAD
S31500000DBC002003F0B5F9236833B9032301A8ADF875
S31500000DCC043021F023FA0EE001A800F035FB0028D0
S31500000DDCF3D122689DF8043012789342EDD0012AA3
S31500000DEC01D1022BE9D003F0A2F902B010BD00BF6D
S31500000DFC3C21002010B5044603F097F9204601F07B
S31500000E0C42FFBDE8104003F092B900000D4B1B6881
S31500000E1C37B505469BB11C780289C37A0A490092FC
S31500000E2C012C4FF00100094A08BF022403F0DCFD37
S31500000E3C2046294603B0BDE8304021F083B9702026
S31500000E4C03B030BD3C210020D3E30200EFE30200E7
S31500000E5C10B5044600F0F4F8631E04F10F0213F803
S31500000E6C011FFF2904BF002119709342F7D10023FB
S31500000E7C237410BD7FB504AB03E9030000239DF872
S31500000E8C0D509DF80E601C461549D8B201EBC002F8
S31500000E9C526832B111F830100133B14208BF144612
S31500000EACF2E79DF80C1000919DF80A209DF80B3086
S31500000EBC0C49042003F0B6FD25B104200A492A4644
S31500000ECC03F0B0FD094A0A49BDF808300420002C8D
S31500000EDC18BF224604B0BDE8704003F085BD00BFC4
S31500000EEC58E40200F8E3020009E40200F4E302000D
S31500000EFC0DE4020007F00EBA10B50CF04EF84FF4E4
S31500000F0CE13100220123202010F05AF908F0AAF949
S31500000F1C044608F0A9FE224603461249012003F0B6
S31500000F2C63FD08F0A5F9044608F0AAFE224603461E
S31500000F3C0D49012003F058FD08F094F9012303FA3A
S31500000F4C00F240F2A17313405BB1084C207808F014
S31500000F5C95F9207808F054FA2078BDE8104008F08E
S31500000F6C53BB10BDA0E40200B6E40200931A0020A5
S31500000F7C07B5002101A80A4601F043FE002849D115
S31500000F8C1EF032FC034648B101202449244A03F0E2
S31500000F9C2BFD2448A02107F051FF03E00220224933
S31500000FAC03F022FD03F0B2F8FFF7AEFB00F05EFB98
S31500000FBC00F026FB0220014604F076F8FFF7F6FE59
S31500000FCC02F026F9194B41F254221A80184A522380
S31500000FDC1380184A012013801AF090FD08F00EFDBC
S31500000FEC1EF0ACFC02F086FE012801D000F00FFBCF
S31500000FFC10F03CF9FFF726FA0020202102F032FB14
S3150000100C28B14FF6FF700C490C4A03F00BFD03F0A8
S3150000101C90F8E3E7019803B05DF804FBD6E4020010
S3150000102CECE20200E7E4020064E50200BE1F0020C9
S3150000103CC01F0020C21F00206EE5020072E50200F0
S3150000104C024B7F221988102308F02CBC0E6F03006C
S3150000105C1EF040BD1EF04ABD1EF002BB25F000BCC2
S3150000106C1FB5684625F00AF998B902A927F098F831
S3150000107C02A86946082202F068FF00B3012002A903
S3150000108C27F08EF802A86946082202F05EFF38B9EE
S3150000109C12E025F0E5F84FF6FF739842044601D1AD
S315000010ACFF200CE0002027F093F8A04206D0012088
S315000010BC27F08EF8A042F3D1012000E0002004B006
S315000010CC10BD000010B5044603F042F8A0B9224644
S315000010DC4FF4A8530820094903F086FC20464FF428
S315000010ECA85106F0BBFB044605490820224603F02E
S315000010FC7BFC03F01CF8204610BD00BF7DE502000A
S3150000110C89E502007FB5054603F00FF81EF0E2FCF8
S3150000111C38B16B88B3F5006F03D1681D01F075FD0E
S3150000112C1EE0284601F0ACFDC0B90446E6B23046D6
S3150000113C694616F023FE60B99DF800304BB930466F
S3150000114C294616F081FE58B175280CBF8B248C24C9
S3150000115C07E001340A2CE9D18C2402E08D2400E04E
S3150000116C044602F0E4FF204604B070BD38B50546CF
S3150000117C02F0DBFF284601F081FD08B18D2410E05A
S3150000118C284616F02FFE50B175280CBF8B248824E8
S3150000119C082006492A46234603F026FC01E00446AD
S315000011ACF6E702F0C4FF204638BD00BF93E5020007
S315000011BC37B502A9FF2301F8013D044601F018FDDD
S315000011CC10B19DF8070011E0094B03EB04131D7BCE
S315000011DC19F05FFE854201D0FF2007E0204600F0A3
S315000011EC63FA0028F8D0204600F092FC03B030BD1C
S315000011FCE42D00202DE9F04107460D4601F0FAFCDE
S3150000120C0646F0B9384600F0F7FBFF2819D00E4B0E
S3150000121C03EB001494F80C8019F03BFE804510D1BA
S3150000122C63882B80A3886B80A3792B7101213846A8
S3150000123C00F074FC31466871384600F06FFC0126EC
S3150000124CA8713046BDE8F081E42D0020F8B50546BE
S3150000125C0E46144600F0D0FBFF2802D14FF6FF7065
S3150000126CF8BD0C4B03EB0010077B19F012FE8742FE
S3150000127CF4D11EB928462146012204E0012EEDD1F7
S3150000128C28462146002200F073FC0028E6D0008890
S3150000129CF8BD00BFE42D002010B5044602F045FF52
S315000012AC2046FFF71BFDBDE8104002F040BF0000D2
S315000012BC13B503460B480068C45CA24208D20092E0
S315000012CC04200949094A234603F08EFB002007E057
S315000012DC002208460092194623461EF0BBFF204604
S315000012EC02B010BDE81A0020A9E50200ECE20200EB
S315000012FCF0B599B0154603AC0E46074602F015FF3D
S3150000130C284621465222FFF7D3FF85B28DB10DF147
S3150000131C0A0024F095FF0DF10B0024F099FF9DF8BF
S3150000132C0A209DF90B300095019438463146FFF79B
S3150000133CE5FB02F0FCFE19B0F0BD2DE9F0419AB0C8
S3150000134C1C4605AD0F461646804602F0EEFE2046BC
S3150000135C29465222FFF7ACFF50B180B28DE821002E
S3150000136C02944046394632469DF88030FFF712FC0F
S3150000137C02F0DDFE1AB0BDE8F0812DE9F743074611
S3150000138C0E460A98BDF830909DF8348019461446DE
S3150000139C1EF088FFFF2805463AD00B9B1870062FC7
S315000013AC30D8DFE807F00404040B12241D0038467D
S315000013BC314622462B4625F0B9F921E00C21204670
S315000013CC0A462B4625F084F91AE0E17ACDF800900E
S315000013DCCDF8048020460A462B4625F03BF90FE053
S315000013EC304621460C222B4625F0DAF808E0E37A43
S315000013FC48468DE8280031464246234625F0F4F847
S3150000140C044600E0022428461EF0E4FD204600E0D7
S3150000141C182003B0BDE8F0830149082202F034BD60
S3150000142C2540002010B5044608461EF02DF920462E
S3150000143CBDE8104020F036B920F034B905207047CD
S3150000144C002070470A207047014B1878704700BF80
S3150000145C071B00204B207047024B18685968FFF792
S3150000146C09BD00BF189A030013B5044602F05DFED1
S3150000147C0DF1060024F0E4FE0DF1070024F0E8FE61
S3150000148C20469DF806109DF907200CF00BFF30B98D
S3150000149C20469DF806109DF907200FF051F902F031
S315000014AC46FE02B010BD38B505460C4602F03DFEB0
S315000014BC284621460DF036F818B9284621460FF075
S315000014CC4FF9BDE8384002F032BE38B505460C4639
S315000014DC02F02BFE284621460CF04AFF18B9284686
S315000014EC21460FF01BF9BDE8384002F020BE38B596
S315000014FC05460C4602F019FE284621460CF064FF00
S3150000150C18B92846214601F0C5FBBDE8384002F063
S3150000151C0EBE704700F089B870470000F7B5244B33
S3150000152C0446186801900D461646002C3AD0002A3F
S3150000153C38D0002301AA9A5CAA4203D00133042BAB
S3150000154CF8D12FE000274FF6FF71FBB2AA1E93428B
S3150000155C08DAE05C90FAA0F0000E02F0BBFB013753
S3150000156C0146F2E7CBB293FAA3F3C1F3072191FA42
S3150000157CA1F1090E1B0E01EB03236219DB439BB28F
S3150000158C12F8020CD9B288420ED112F8012CB2EB29
S3150000159C132F09D128462146324603B0BDE8F04048
S315000015AC18F0DEBC022000E0BD2003B0F0BD00BF89
S315000015BCC1E502002DE9F0411E4686B00F4B1546DB
S315000015CC804603A80F461C7816F03CFF15F0FD0F5D
S315000015DC08D040B9BDF80C309B0704D5032D08BFC5
S315000015EC032400E0032440460094394632462B4639
S315000015FC01F04EFB204606B0BDE8F081A02000208D
S3150000160C08B506F048FEBDE8084004F03BBA08B53C
S3150000161C06F042FEBDE8084004F060BA704701F0DF
S3150000162C1EBB01F022BB0020704738B505460C46A0
S3150000163C01F033FB28462146BDE8384010F070BB5C
S3150000164C01F015BB06F04ABE10B50123312B194625
S3150000165C08D0054A0233D41814F8034C8442F5D149
S3150000166C505C10BD002010BDC5E50200084B0948B2
S3150000167C01221A70084B4FF482715980042199800B
S3150000168C00211A709971986019735A73704700BFCC
S3150000169CA1200020F8E50200E42D0020014B18786B
S315000016AC704700BFA1200020034B03EB0010407BCA
S315000016BC00F00100704700BFE42D002041380328DC
S315000016CC8CBF002001207047413801288CBF0020B8
S315000016DC01207047433801288CBF00200120704739
S315000016EC002070470388B3F57C4F01D3FFF7F8BF92
S315000016FC0020704738B54A8803889A420C460DD1AB
S3150000170C0B79017B0B400BD0B2F57C4F0AD3FFF75C
S3150000171CE7FF23891B1A5842584104E0002002E0D7
S3150000172C184600E0012000F0010038BD38B514461B
S3150000173C0D88D28895420AD10388B3F57C4F08D21E
S3150000174CFFF7D0FF23891B1A5842584138BD002099
S3150000175C38BD012038BD00002DE9F04F89B09A46FE
S3150000176C9DF848300293764BDFF8E4811B780191A3
S3150000177C08EB03130746154605934FF00009059B26
S3150000178C984500F0D78018F80D2C3B7858F805CC06
S3150000179C9A4240F0C78098F80030DC0740F1C780C9
S315000017AC9CF8043003934FF0000B039A5FFA8BF30B
S315000017BC934280F0BC80DCF80030CDF810C01426C3
S315000017CC06FB0B3630463946FFF794FFDDF810C0A2
S315000017DC002800F0A08033890493002304999AB260
S315000017EC8A4280F09C807268CDF81CC00C2404FBE5
S315000017FC0324304621463A460693FFF797FF069B8D
S3150000180CDDF81CC000287CD0019B03B11C60237939
S3150000181C980611D54B4A0023A24209D211798906A2
S3150000182C42BF92F8039099441FFA89F30C32F3E7FE
S3150000183C454803EB000901E044488144029B63B12F
S3150000184C21463046FFF74EFF7988238802463878C2
S3150000185C01F0B7F998B97E206FE0002D4FD02146E4
S3150000186C3046FFF73FFF798823880246387801F027
S3150000187CA6F90028EFD02846DFF8D88003E0DFF879
S3150000188CD8804846A9462379DB060DD52146304635
S3150000189CFFF728FF79880346387812952246C44606
S315000018AC09B0BDE8F04F6047A378BAF1000F01D13B
S315000018BCE27800E05246A3F14101012905D8013A2C
S315000018CC4946D2B204F0FCFB19E0433B012B05D888
S315000018DC023A494692B204F00DFC10E0029B2BB979
S315000018ECBAF1000F02D0E378534525D84946B9F131
S315000018FC000F02D102F022FB01E002F0C5FA002033
S3150000190C1BE0227912F0300F02BFE07881441FFAF7
S3150000191C89F9013362E7708981441FFA89F90BF161
S3150000192C010B42E7BCF8060081441FFA89F908F15D
S3150000193C100824E7862000E0892009B0BDE8F08F66
S3150000194CA120002024E70200BC2D0020F42D00204D
S3150000195CF12D0020ED2B0000F12B000010B586B008
S3150000196C00248DF81030BDF820308DF80C00ADF841
S3150000197C0E10ADF81220ADF81430009403A802A98D
S3150000198C224623460294FFF7E7FE029806B010BDE6
S3150000199CF0B507790024E3B2BB4215D21425654392
S315000019AC06687319755B8D420CD17AB1802A04D105
S315000019BC93F90C50002D05DA08E0402A02D11D7B64
S315000019CC6D0603D40134E6E70020F0BD1846F0BDE1
S315000019DC074B1B783BB1074B1A78824205D1587BD3
S315000019EC00F001007047184670470020704700BF92
S315000019FCA1200020E42D002070B50A4B1D78002292
S31500001A0CD3B2AB420AD2140107496618615C814213
S31500001A1C02D1717BC90703D40132F1E7FF2070BDF7
S31500001A2C184670BDA1200020E42D002038B50D46C7
S31500001A3C1446FFF7E1FFFF2809D0064B03EB001015
S31500001A4C294622468068BDE83840FFF7A1BF002032
S31500001A5C38BD00BFE42D002008B50022FFF7E6FFD5
S31500001A6C003018BF012008BD08B54022FFF7DEFF85
S31500001A7C003018BF012008BD08B58022FFF7D6FF3D
S31500001A8C003018BF012008BD054B1B7833B1054B40
S31500001A9C1B78834214BFFF2000207047FF2070473D
S31500001AACA1200020E42D002038B50D461446FFF782
S31500001ABCEBFF054B03EB0010294622468068BDE878
S31500001ACC3840FFF765BF00BFE42D002070B5064611
S31500001ADC0D461446FFF7AAFF80B1094B187870B172
S31500001AEC084B1878B04207D029462246FFF7DCFF90
S31500001AFC003018BF012070BD002070BDFF2070BDE6
S31500001B0CA1200020E42D00204022FFF7DFBF0000BB
S31500001B1C014B0001185C7047E42D002070B50D4692
S31500001B2CFFF76AFFFF2817D0104B03EB00108268F3
S31500001B3CA2B1002411792046E3B28B420BD216686F
S31500001B4C142303FB04635DB11B7B5B0601D5431CAD
S31500001B5CD8B20134F0E770BD002070BD104670BDE0
S31500001B6C93F90C30002BF4DAF1E700BFE42D0020DA
S31500001B7C2DE9F0410F469046FFF73EFFFF281ED099
S31500001B8C104B03EB00100024866832792546E3B22D
S31500001B9C934214D23068142303FB0400B8F1000FEF
S31500001BAC03D0037B5B0604D407E090F90C30002BC2
S31500001BBC03DABD4204D00135EDB20134E7E700206B
S31500001BCCBDE8F081E42D00202DE9F04F8BB00646E0
S31500001BDC19F05DF93D4B1B78039383460024039B58
S31500001BEC9C426FD2FF2E05D03046FFF705FFFF282B
S31500001BFC044667D0FF2EDFF8D8904FEA041804D1BC
S31500001C0C09EB08031B7B5B4559D1002709EB08033D
S31500001C1C9A681179FBB299424FD91268142505FBC3
S31500001C2C03252B89B3F5967F01D907F0E7FE4FF014
S31500001C3C000A2A891FFA8AF39A423CD90C21686851
S31500001C4C59434218137913F0100F31D119F808E0E3
S31500001C5C8DF81CE0B5F800E0ADF81EE013F0400F6F
S31500001C6C14BF4FF0800E4FF0400E8DF820E0415A15
S31500001C7CADF822102846114605930492FFF732FD63
S31500001C8C059B049AADF8240013F0040FD37804D006
S31500001C9C022B926805D9126803E0022B8CBF92685E
S31500001CAC083201230021009307A80B46FFF754FDC9
S31500001CBC0AF1010ABDE70137A8E7FF2E02D101346C
S31500001CCCE4B28CE70BB0BDE8F08F00BFA12000207A
S31500001CDCE42D00200021FFF777BF10B50121044643
S31500001CECFFF772FF2046BDE81040FFF797BC704720
S31500001CFC10B5047B11EA040310D0002201238B4299
S31500001D0C08D2234218BF01324FEA430318BFD2B29E
S31500001D1CDBB2F4E7036953F8220010BD184610BD78
S31500001D2CF8B517469DF8182005461E46FFF77EFEA9
S31500001D3C78B10421FFF7DCFF044650B1284602F0C7
S31500001D4C07FA284639463246A047BDE8F84002F065
S31500001D5CEEB9F8BD2DE9F74F0C9D9DF834B08246CF
S31500001D6C89461F46144612B30DB303B32B7892F86B
S31500001D7C0480518813F0080F14BF4022802240467D
S31500001D8CFFF754FE98B10821FFF7B2FF064670B173
S31500001D9C404602F0DDF98DE82008504649462246B9
S31500001DAC3B46B04703B0BDE8F04F02F0C0B903B0F4
S31500001DBCBDE8F08FF8B517461A460446BDF818600C
S31500001DCCFFF734FEE0B15EB90221FFF791FF05463D
S31500001DDCB0B1204602F0BCF920463946A8470BE0C4
S31500001DEC1021FFF785FF054650B1204602F0B0F9E9
S31500001DFC204639463246A847BDE8F84002F097B966
S31500001E0CF8BD73B516461A460546FFF70FFEB8B170
S31500001E1CBDF81830B3B92021FFF76AFF044698B114
S31500001E2C284602F095F9099B0093284631469DF801
S31500001E3C1C209DF82030A047044602F078F903E0F8
S31500001E4C862002E0002000E0204602B070BDF8B506
S31500001E5C86680446007802F07BF900253379EAB2ED
S31500001E6C934211D91423534332682078D15AD71888
S31500001E7C00F0A9FE38460121FFF73AFF034608B1E8
S31500001E8C207898470135E9E7BDE8F84002F04FB9EC
S31500001E9C10B50024074B1B78E0B2834209D9064BD8
S31500001EAC03EB0010437BDB0701D5FFF7D0FF0134B2
S31500001EBCF0E710BDA1200020E42D002070B5164BD4
S31500001ECC1B7833B3154B1D7885421C4621D15A7BA2
S31500001EDC02F0010039B142F001025A7328B91846D2
S31500001EECFFF7B5FF01E0597308B9012070BDA26870
S31500001EFC13794E1CC9B28B42F7D914235943136874
S31500001F0C5A182846127B595AD209FEF703FB31465A
S31500001F1CEDE7002070BD00BFA1200020E42D0020BD
S31500001F2C2DE9F047099FBDF820E09DF828C09DF8E3
S31500001F3C2C804C7D28B14CB1012C14BF04250125F5
S31500001F4C05E0002C14BF0425082500E002251848DE
S31500001F5C002400F1880930F8036C96421ED190F8E3
S31500001F6C00A01AEA050F19D010F8016C664515D3B6
S31500001F7C1AF0100F91F80FA003D0BAF1000F03D18D
S31500001F8C0CE0BAF1000F09D1A0450DD074450BD267
S31500001F9C1E553E88013401363E80A4B204304845B5
S31500001FACD9D10120BDE8F0870020BDE8F08700BF3D
S31500001FBC9FE602002DE9F04F89B01C469DF84C3087
S31500001FCC019392469DF850300293224606460D46E2
S31500001FDCFFF72CFDBDF848308DF81460ADF816509F
S31500001FEC8DF81840ADF81AA0ADF81C30804608B92B
S31500001FFC01204CE005A9FFF77DFB0028F8D04FF037
S3150000200C000B5F465C465D46B8F808101FFA8BF26B
S3150000201C914238D90C265643B8F80020D8F804302B
S3150000202CB2F57C4F03EB060905D3985B50450FD2EE
S3150000203C0134A4B222E09A5BADF81A204046494618
S3150000204C05AA0393FFF772FB039B0028EDD117E05B
S3150000205C019B9D4212D201F0D3FF99F8020001F0C8
S3150000206CBBFF029B43B199F8042012F0010F14BF79
S3150000207C0720052001F0B0FF0135ADB20137BFB224
S3150000208C0BF1010BC0E72C44E31B5842584109B035
S3150000209CBDE8F08F2DE9F04F8FB090461F46002219
S315000020AC9DF87030BDF8609005938DF82C00ADF856
S315000020BC2E10134606460D4600920BA808A9199C2D
S315000020CC9DF868B008928DF83070ADF83280ADF896
S315000020DC3490FFF741FB089B002B00F093809DF892
S315000020EC6C203AB99A785A4540F08E801A79D10705
S315000020FC40F18C801A79520739D59A6851689268E2
S3150000210C09910A92987804F07BF8089B93F803A03F
S3150000211CBAF1020F844614D863462146524609A8E2
S3150000212CCDF81CC004F007F8DDF81CC00690634619
S3150000213C0AA82146524603F0FEFF069B012B12D13C
S3150000214C13E063460998CDF818C02146524603F0B1
S3150000215CF2FF0128DDF818C007D00A98214652462E
S3150000216C634603F0E8FF013001D1872051E0059B5F
S3150000217C002B4DD18DE8000A089BDB780293039463
S3150000218C3046294642463B4600F065FD002840D1C4
S3150000219C8DE8000A089BDB780293039430462946A7
S315000021AC42463B46FFF72DFE98BB0599012300934B
S315000021BC0BA822460B46FFF7CFFA50BB20463146FA
S315000021CC2A46089BFFF793FD3046294642463B4676
S315000021DC8DE8000A02940DF0E1FF8DE8000A089BD9
S315000021ECDB7802933046294642463B46039400F080
S315000021FC31FDCDF800903046294642463B46FFF766
S3150000220CD9FD05E0862004E08D2002E0882000E060
S3150000221C00200FB0BDE8F08F2DE9F04786B082465E
S3150000222CBDF838600F9D9DF84040009601950294CC
S3150000223C894690461F4606F043F888B1022810D806
S3150000224C0CBF0123002303930023049300960195EE
S3150000225C02945046494642463B46FFF71BFF00E0B8
S3150000226C012006B0BDE8F08730B587B000240A9D82
S3150000227C01959DF82C500295012500940395049424
S3150000228CFFF708FF07B030BD10B586B000240193E8
S3150000229C9DF8203002930123039300940494402369
S315000022ACFFF7F8FE06B010BD10B586B0BDF820409D
S315000022BC0094099C01949DF82840029400240394F0
S315000022CC01240494FFF7E6FE06B010BD30B587B0C6
S315000022DC00258DF81030BDF828308DF80C00ADF8BF
S315000022EC0E10ADF81220ADF81430009503A802A913
S315000022FC0B9ABDF830300D9C0295FFF72DFA18B9E4
S3150000230C14B1029B9B78237007B030BD1FB5002417
S3150000231C0094069C01949DF81C400294089C03941E
S3150000232CFFF7D4FF04B010BD1FB5002401939DF830
S3150000233C18300293009403944023FFF7C7FF04B0B0
S3150000234C10BD00002DE9F04F002691B0FFF7A6F95D
S3150000235C5FFA86FA824557D200272D4A4FEA0A1BA6
S3150000236C02EB0B03996804920879FBB2984249D99F
S3150000237C0A68142404FB03244FF0000822891FFA70
S3150000238C88F39A423CD94FF00C0909FB03F96368B0
S3150000239C059303EB090507F031FB29462046FFF7A9
S315000023ACA1F9049B218813F80BE0059B33F809204F
S315000023BC2B79009013F0400F4FF0210302930DF18F
S315000023CC1C094FF000030393CDF8049014BF80232F
S315000023DC40237046FFF77AFF86280ED0A878FFF7C1
S315000023EC73F918B1484601F081FE06E0A878FFF7AC
S315000023FC71F910B1484601F07EFE08F10108BDE7FF
S3150000240C0137AAE70136A1E711B0BDE8F08F00BF8E
S3150000241CE42D0020F0B58FB01646BDF85470042F8D
S3150000242C49D9BDF8504000942124029405AD0DF114
S3150000243C130403940195FFF749FF0446D8B99DF898
S3150000244C1300A0F14103012B04D8284601F04EFEDF
S3150000245C013007E0A0F14303012B05D8284601F013
S3150000246C4AFE0230C4B202E0FFF7EEF80446E31C63
S3150000247CBB4220DA06E0304601F0C2FD204601F0F0
S3150000248CABFD18E0304601F0BBFD0C4E002001F010
S3150000249CA3FD9DF8130001F09FFD33881A19512AEC
S315000024AC09DC0748A4B218442246294601F0ECFC84
S315000024BC3088044434800FB0F0BD00BF402E00209D
S315000024CC502E002010B50446C07B20B9E37C1BB906
S315000024DC06F082F800E00020E37B20B9002B14BF45
S315000024EC8320812010BD002010BD10B50446C07B92
S315000024FC00BBE37C012B0ED002D3402B0ED01AE08E
S3150000250C217DA2898B1C9A421CD3A06801F0C5FDC3
S3150000251C0CF0DAFB0FE00CF0F1FB0CE0237DA1894B
S3150000252C9A1C91420ED3A268591CD05C515C0FF0D8
S3150000253C69FC00E00020E37B30B9002B14BF83203C
S3150000254C812010BD802010BD002010BDC37B2DE95D
S3150000255CF0410446002B5BD1C37C032B58D8DFE833
S3150000256C03F002143948017D8289CB1C9A4202D2AF
S3150000257C8020BDE8F0818068455C013101F08DFD5D
S3150000258C014628460CF04AF843E0037D8289591C23
S3150000259C8A42EDD39DB28068691CC65C8B1C9A423C
S315000025ACE6D301F07AFD0746A068B4F80C80033533
S315000025BC284401F09BFD284401308045D8D3294698
S315000025CCA289A06801F070FD3946024630460CF02F
S315000025DC2BF81EE0017D82898B1C9A42C8D38BB2E4
S315000025EC82685D1C0233505C515D1A440CF022F873
S315000025FC0FE0017D8289CB1C9A42B9D38068455C79
S3150000260C013101F04AFD014628460CF019F800E0AC
S3150000261C0020E37B28B9002B14BF83208120BDE862
S3150000262CF0810020BDE8F081F8B5C37B0446002B91
S3150000263C6CD1C37C052B69D8DFE803F003242F3B50
S3150000264C4649057D8289AB1C9A4201D28020F8BD91
S3150000265CADB22946806801F020FD0646A068A78920
S3150000266C0235284401F042FD284401308742EDD35F
S3150000267C2946A068A28901F017FD014630460CF0E8
S3150000268C7FF844E0017D82898B1C9A42DED38068F8
S3150000269C01F003FD0CF094F839E0037D81895A1C96
S315000026AC9142D3D38268591CD05C11440CF0B8F813
S315000026BC2DE0017D82898B1C9A42C7D3806801F07C
S315000026CCECFC0CF031F922E00CF08AF91FE0057DE8
S315000026DC8289AB1C9A42B9D3ADB22946806801F007
S315000026ECDCFC0646A068A7890235284401F0FEFCEE
S315000026FC284401308742A9D32946A068A28901F053
S3150000270CD3FC014630460CF0B5F900E00020E37B23
S3150000271C20B9002B14BF83208120F8BD0020F8BD02
S3150000272CC37B2DE9F3470446002B40F0B680C37CEF
S3150000273C062B00F2B280DFE803F00419556877B077
S3150000274C8A00037D8289191D8A4201D28020ADE060
S3150000275C9DB28068691CC65C01F09FFC0335A368BA
S3150000276C01465A5D30460EF0C9FC97E0037D82891E
S3150000277C591C8A42EAD39DB28068691CC75C8B1CC3
S3150000278C9A42E3D301F089FCA289291D8A4281462B
S3150000279C05F10303DAD3A06810F803809FB901F0A2
S315000027AC7CFC06352946A2890646A06801F07CFC0D
S315000027BC8246A068284401F099FC01300544A068C3
S315000027CC10FA85F504E04FF0000A4FF6FF765546F1
S315000027DCCDF800A0019538464946424633460EF0E0
S315000027ECDBFC5BE0037D8289191D8A42AED39DB268
S315000027FC8068691CC65C01F050FC0335A368014671
S3150000280C5A5D30460EF084FC48E0017D8289CB1C73
S3150000281C9A429BD38068455C013101F03EFC01462F
S3150000282C28460EF07BFC39E0037D8289191D8A420D
S3150000283C8CD39DB28068691CC65C01F02EFC0335F6
S3150000284CA36801465A5D30460EF06EFC26E0037D09
S3150000285C8289591C8A42FFF479AF9DB28068A91C03
S3150000286C8A42C65C05F10103FFF470AFC75C8B1C92
S3150000287C9A42FFF46BAF01F010FC02462EB9A16828
S3150000288C2B1D0535CB5C0D4401E0FF23002500957F
S3150000289C304639460EF04EFC00E00020E37B20B9B2
S315000028AC002B14BF8320812000E0002002B0BDE87D
S315000028BCF087C37B2DE9F7430446002B40F02381B8
S315000028CCC37C042B00F0838007D8012B54D016D37D
S315000028DC022B61D0032B6FD015E1402B00F0A380A7
S315000028EC06D8052B00F08380062B00F090800AE1B9
S315000028FC412B00F0D780422B00F0E58003E1057DEB
S3150000290C8289AB1C9A4201D2802005E1ADB22946E0
S3150000291C806801F0C2FBA289E91C8A42804605F157
S3150000292C0203F1D3A068C75C8B1C9A42ECD301F06E
S3150000293CB4FB0646A068B4F80C900535284401F0A3
S3150000294CD5FB284401308145DED32946A289A068EF
S3150000295C01F0AAFB8146A068284401F0C7FB0130B0
S3150000296C0544A06810FA85F500954046394632466E
S3150000297C4B460EF0EDFAC7E0057D8289EB1C9A42B8
S3150000298CC2D3ADB22946806801F087FB0235A36835
S3150000299C595D0EF061FBB7E0057D8289EB1C9A420E
S315000029ACB2D3ADB22946806801F077FB0235A36835
S315000029BC595D0DF09FFFA7E0017D82898B1C9A4221
S315000029CCA2D3806801F069FB0EF004F89CE0057D4B
S315000029DC8289EB1C9A4297D3ADB22946806801F0E6
S315000029EC5CFB0235A368595D0EF02CF98CE0057D75
S315000029FC8289EB1C9A4287D3ADB22946806801F0D6
S31500002A0C4CFB0235A368595D0EF06CF97CE0017D38
S31500002A1C82898B1C9A42FFF477AF806801F03DFBEC
S31500002A2C0EF03EF870E0057D8289AB1C9A42FFF4ED
S31500002A3C6BAFADB22946806801F02FFBA289E91C69
S31500002A4C8A42804605F10203FFF45EAFA068C75CBC
S31500002A5C8B1C9A42FFF458AF01F01FFB0646A06888
S31500002A6CB4F80C900535284401F040FB284401309D
S31500002A7C8145FFF449AF2946A289A06801F014FBF1
S31500002A8C8146A068284401F031FB01300544A0685A
S31500002A9C10FA85F500954046394632464B460FF0FE
S31500002AAC6BFA31E0057D8289EB1C9A42FFF42CAF60
S31500002ABCADB22946806801F0F0FA0235A368595D7B
S31500002ACC0FF06CFA20E0037D8289D91D8A42FFF44F
S31500002ADC1BAF9DB28068691C10F8038001F0DDFA0B
S31500002AECEB1C0746A068A289C65C291D01F0D5FA25
S31500002AFCA168AA1D03468A5C0092404639463246B6
S31500002B0C0FF056FA00E00020E37B20B9002B14BF2F
S31500002B1C8320812000E0002003B0BDE8F08338B5A7
S31500002B2CC37B002B437D14BF8325C325012B044691
S31500002B3C1DD1036858795988FEF79EFFB8B12368F2
S31500002B4C5B88052B08D0062B0BD0042B34D12046E2
S31500002B5CBDE83840FFF7FABC2046BDE83840FFF721
S31500002B6CDFBDE37B002B14BF8325812524E0637D29
S31500002B7C13BB236858795988FEF776FFE0B12368B2
S31500002B8C5B88052B18D8DFE803F0031717080D121E
S31500002B9C2046BDE83840FFF795BC2046BDE83840D6
S31500002BACFFF7A3BC2046BDE83840FFF73DBD2046E5
S31500002BBCBDE83840FFF77DBE284638BD704701207A
S31500002BCC70470120704770470020704700207047FF
S31500002BDC0020704700207047002070470020704787
S31500002BEC0120704701207047B520704700207047C0
S31500002BFC0020704700207047002070477047002067
S31500002C0C70470020704700207047B520704770470A
S31500002C1C7047704770477047002070477047002018
S31500002C2C7047002070470000034B1B68187801287A
S31500002C3C08BF0220704700BF3C21002000207047CF
S31500002C4C03464FF6FE720120DA8100229881186144
S31500002C5C1A7070477047002070470020704700209C
S31500002C6C70470020704700207047002070470020F6
S31500002C7C7047002070477047B5207047002070479A
S31500002C8C002070477047704770477047B5207047F3
S31500002C9C7047704770470020704770470120052128
S31500002CAC024603F01BBC01200521042203F016BCCE
S31500002CBC01200521032203F011BC0120052102226B
S31500002CCC03F00CBC052101200A4603F007BC0120C9
S31500002CDC0521062203F002BC01200521412203F046
S31500002CECFDBB01200521402203F0F8BB0120052184
S31500002CFC422203F0F3BB01200521002203F0EEBBB8
S31500002D0C01200621022203F0E9BB01200621422202
S31500002D1C03F0E4BB01200621412203F0DFBB0120B6
S31500002D2C0621024603F0DABB01200621402203F0FD
S31500002D3CD5BB01200621002203F0D0BB01200421C3
S31500002D4C024603F0CBBB042101200A4603F0C6BBA6
S31500002D5C01200421032203F0C1BB0120042105221A
S31500002D6C03F0BCBB01200421002203F0B7BB0920F1
S31500002D7C0021012203F0B2BB2DE9F84F022983464C
S31500002D8C8A460C9C02D943B1042904D8022058491E
S31500002D9C01F02AFE35E042F004028BF8002033B134
S31500002DAC8BF801301B0A8BF80230032500E0012555
S31500002DBC02F026FFAE1C0BF8050001359DF8282005
S31500002DCC0BF805204FF0000906E0B3189EB2002C54
S31500002DDC70D109F1010944465FFA89F20B9B9D5C9F
S31500002DEC002D75D0732D0FD9752D74D0762D74D00A
S31500002DFC782D74D0772D74D002203E492A4601F0E6
S31500002E0CF3FD0020BDE8F88F4C2D04F1040827686B
S31500002E1C03D0532D01D0622D15D161684C2D04F1D0
S31500002E2C08088CB207D14FF6FF722146944214BFA4
S31500002E3C0222002224E0532D20D1C9B2B1F1FF02A7
S31500002E4C18BF01221CE06C2D04D1384601F053F951
S31500002E5C023005E0732D05D1384601F047F90130F3
S31500002E6C84B20BE0A5F13004E2B2092A05D9A5F12A
S31500002E7C4102062AC0D8A5F13704A4B20022114695
S31500002E8C30191044824502DBB446104606E01A4956
S31500002E9C022022442B4601F0A7FDB2E7002894D06D
S31500002EAC0CF1010E01380BF80C10C0B2090A1FFA0E
S31500002EBC8EFCF3E71FB9022010492246EAE70BEB1A
S31500002ECC06003946224600F0DFFF33199EB280E732
S31500002EDC3046BDE8F88F012204E0022202E003220C
S31500002EEC00E0042204F10408216800242746C7E701
S31500002EFCE0410300054203001E4203005142030059
S31500002F0C10B5044C20600448018004490A60044A48
S31500002F1C136010BDAC200020A2200020A8200020A9
S31500002F2CA420002070B586B00C4615460D490AAA99
S31500002F3C0988064652F8040B00930B4B029201903B
S31500002F4C0592186832462B46FFF716FF074B1B688F
S31500002F5C1880074B1B684FF48A525C80DA8006B0E7
S31500002F6C70BD00BFA2200020AC200020A8200020AD
S31500002F7CA420002008B430B586B009AB0C460E4927
S31500002F8C054653F8040B0988059302930B4B0092E4
S31500002F9C01902A4618680023FFF7EEFE084B1B68C3
S31500002FAC1880084B1B684FF48A525C80DA8006B096
S31500002FBCBDE8304001B07047A2200020AC200020B4
S31500002FCCA8200020A4200020044A054912680346C4
S31500002FDC08681188034A1268FDF73EBCA820002039
S31500002FECA4200020AC2000200020FFF7EDBF00003D
S31500002FFC07B5064B1B681A88054B00911968054BDB
S3150000300C1B68FDF78FFB03B05DF804FBA8200020BE
S3150000301CA4200020AC2000200021FFF7E9BF00000F
S3150000302C044B054A1B6810681988044B1A68FDF78F
S3150000303C96BB00BFA8200020A4200020AC200020B6
S3150000304C014B1868704700BFA4200020024B1B6878
S3150000305C18715971704700BFA42000202DE9F0416A
S3150000306C0D46D1F808802A6834490446202007F01A
S3150000307C13F96B6823B93249202007F00DF94BE0A0
S3150000308C002C49D0EB681BB120202E4907F004F91F
S3150000309C4646C8EB060716F8014BFFB2002C37D094
S315000030AC2B691BB12020284907F0F6F8752C13D094
S315000030BC762C13D0772C13D0732C13D0722C13D0F0
S315000030CC712C13D0622C13D06E2C13D01F49204BAD
S315000030DC2A2C08BF19460EE01E490CE01E490AE0D0
S315000030EC1E4908E01E4906E01E4904E01E4902E09E
S315000030FC1E4900E01E49202007F0CEF82B69002B54
S3150000310CC7D01C4953F82720202007F0C5F8C0E784
S3150000311C2020194907F0D4F820200EF08FF8EA6821
S3150000312C1AB12020154907F0B7F82020124907F0EC
S3150000313CC7F82020BDE8F0410EF080B88C61030082
S3150000314C8CF70200D3420300434D0300CD4203002B
S3150000315CD04203008C4203008042030097420300D6
S3150000316CA3420300AD420300B8420300C34203006E
S3150000317C8BF70200DD420300E77C0300E342030009
S3150000318CF0B5214B93F87B20104453FA80F00026BF
S3150000319C90F8655090F866205F19551B1B4A01374D
S315000031AC92F800E0EDB230461A46F4B2AC4228D2A0
S315000031BCBB5D11B10CB92D2B21D0782B18D0582B07
S315000031CC08D0602B1ED8402B05D83A2B34BF3024A0
S315000031DC002401E068B137241B1BDBB2734502D215
S315000031EC00FB0E300BE0052382F879300020F0BD91
S315000031FC40B9013C012CE4D84FF0100E00200136EA
S3150000320CD3E7F0BD5724E7E7B1200020941A00203D
S3150000321C094A0023FF21137082F8783082F8653052
S3150000322C82F8773082F8793082F87A1082F87B301F
S3150000323C024A1360704700BFB12000200C2E0020FC
S3150000324C034A92F8773092F87B00181AC0B270478E
S3150000325CB12000200021FFF793BF000010B50A4AE9
S3150000326C92F87B30034452FA83F393F86530134497
S3150000327C5C78A4F12D035C425C412146FFF780FF8C
S3150000328C04B1404210BD00BFB120002030B50C4A3D
S3150000329C92F87B300344C043DBB2C00F39B1D5186A
S315000032AC95F8664095F86550641B241A0C7042FA22
S315000032BC83F393F865301A440132104430BD00BFD5
S315000032CCB1200020F7B50E460DF1070115461C4638
S315000032DCFFF7DCFF9DF80730AB42074688BF8DF839
S315000032EC07501CB19DF807402C1BE4B23046224611
S315000032FC002100F023FE301939469DF8072000F016
S3150000330CC3FD9DF8070003B0F0BD38B508220C4686
S3150000331C0123FFF7D7FFE21D2146002314780D7811
S3150000332C02F80159013B01F8014B1C1DF6D138BDC1
S3150000333C10B5044621460120FFF790FE6368A46889
S3150000334C1BB122786E2A0DD11C4623684BB1064957
S3150000335C202006F0A1FF21460020FFF77FFE143443
S3150000336CF3E710BD10BD00BF434D030008B5202088
S3150000337C034906F091FF2020BDE808400DF05EBF22
S3150000338C7B43030010B5FFF7F1FF054C23682BB107
S3150000339C21460020FFF762FE1434F7E710BD00BF8C
S315000033AC9C3B03002DE9F84302461F4B1F4E53F876
S315000033BC22201F49202006F06FFF33681BB9BDE899
S315000033CCF843FFF7DFBFFFF7D1FF0027194C94F83E
S315000033DC7B305FFA87F8013B984520DA44FA87F38D
S315000033EC93F8655025440135002304EB080103F1DD
S315000033FC010991F8662091F86510521ADBB2D2B227
S3150000340C93424FF0200005D2EA5C0B4906F044FFCC
S3150000341C4B46EAE7094906F03FFF0137D6E7306825
S3150000342CBDE8F843FFF784BF981A00200C2E002045
S3150000343CBB430300B1200020DC600300444D0300B5
S3150000344C2DE9F84F804D95F87730002B00F09380DE
S3150000345C7E4B1B78DB0720D5002495F877107A4A2B
S3150000346CE3B2994215D942FA84F1134491F86510E6
S3150000347C114493F8662093F86530D21A0131D2B212
S3150000348C20200DF0D6FE2020714906F005FF0134F0
S3150000349CE3E720206F4906F0FFFE95F877A0DFF8EA
S315000034ACC0E16D4C00269EF800201EF8013F1EF868
S315000034BC017C2A44DF1B4FF0000C0132FFB2E046C0
S315000034CC206858B301389146C2EB090BBB4510F87E
S315000034DC013FB3FA83F14FEA511101D109B127E04B
S315000034EC21B1B8F1000F15D1A04615E019F8011B52
S315000034FCA1F1410BBBF1190F98BF2031A3F1410B80
S3150000350C98BFC9B2BBF1190F9CBF2033DBB29942ED
S3150000351CDAD001E04FF0010C1434D1E74446BCF18B
S3150000352C000F00D124B9022385F87930002419E064
S3150000353C4A4B1C6095F87B30013385F87B30636809
S3150000354CA2680136F6B20BB9144606E012786E2A5A
S3150000355C02D03F2A13D105E01C465645A3D30323BC
S3150000356C85F8793095F8790018B9606800F060F93B
S3150000357C01E0FFF717FFBDE8F84FFFF749BE4FF024
S3150000358C00094F465FFA89F0831995F877102E4A91
S3150000359CDBB29942A3684CD992F87B10DB5D0144EF
S315000035AC52FA81F1732B91F865101144497805D8BC
S315000035BC712B07D243B3622B20D029E0A3F17502FD
S315000035CC022A25D8752B0AD0762B0BD0732B0CD050
S315000035DC722B47F6FF7818BF4FF0FF3807E04FF015
S315000035ECFF0804E04FF6FF7801E04FF07F08012159
S315000035FCFFF7C6FD40450ED904230AE022290AD05E
S3150000360C7B2908D0052300E0032382F8793002E0F9
S3150000361C072385F87930A3683B4409F101095B78E7
S3150000362C2A2B95F879301CBF0137FFB2002BA9D095
S3150000363C98E7D95D002995D01F447B782A2B1CBFAF
S3150000364C032382F879308DE7B1200020B0200020CA
S3150000365C444D0300B84303009C3B03000C2E002092
S3150000366C162100202DE9F34105460C46002655B9D6
S3150000367C20460DF107010DF0D7FD68B1262800F0A4
S3150000368CCE8001225CE0002C00F0C98015F8013BCD
S3150000369C8DF80730013CE4B2634A13780D2B9DF884
S315000036AC0730137001D10A2BE1D00D2B04D0A3F1F6
S315000036BC0A067242724100E00122A3F120014F4238
S315000036CC4F415A49A3F1220091F800C0D0F1000EE7
S315000036DC4EEB000E16460846BCF1040FC7D8DFE8C1
S315000036EC0CF0031318229200002A69D1002FBDD1C9
S315000036FCBEF1000F01D0022302E07B2B02D1032383
S3150000370C0B7061E00123FBE7002A42D1002F40D168
S3150000371C5AE0BEF1000F3CD1002A55D0052381F8A2
S3150000372C793001266CE091F87AE0BEF1FF0C18BFF7
S3150000373C4FF0010C7D2B07D1BCF1000F29D00522CF
S3150000374C3A4B83F879205BE0602B06D8402B06D8E1
S3150000375C3A2B34BF3022002202E0572200E03722F7
S3150000376C9A1AD3B20F2B0DD8BCF1000F07D003EB6E
S3150000377C0E138DF80730FF2381F87A3024E081F898
S3150000378C7A3074E7002F7FF472AF052381F8793015
S3150000379C36E091F877302548112B03D1032380F8B6
S315000037AC79302DE00133DBB280F87730034490F8A2
S315000037BC781083F8651000230370002A3FF456AF87
S315000037CCFFF73EFE012652E791F87820174B642A44
S315000037DC01D10622B5E71B78012B09D19DF80730DC
S315000037ECA3F14107192F9CBF2033DBB28DF80730AC
S315000037FC83189DF807005870013281F8782036E757
S3150000380C0A4B04221A70002E3FF431AF074B93F883
S3150000381C790008B1FFF7C6FDFFF7FAFC27E730463B
S3150000382C02B0BDE8F08100BF2D210020B1200020A0
S3150000383C10B5054B0446187800F072FCA047BDE89D
S3150000384C104000F074BC00BF402100207FB501A8D9
S3150000385CFDF7FEFA042004490DEB000201F0C4F852
S3150000386C07B05DF804FB00BF2F4403002DE9F04FB1
S3150000387C8FB0FF231822002108A88DF812302AF0E9
S3150000388C9EF90DF113014FF0FF30FFF7FFFCFFF728
S3150000389CDDFF41F254229549042001F0A5F806A853
S315000038ACFDF7BAFD08A90DF11200FDF7BBFD0420CA
S315000038BC8F4901F0B7F8042001F078F810B106A88A
S315000038CC00F0F8FF9DF92A308A499DF82B20042038
S315000038DC01F08AF81BF058FF831EDBB2FC2B054661
S315000038EC2CD80420844901F07FF8012422460420B8
S315000038FC824901F097F8E0B205A91BF0E9FE912880
S3150000390C02460ED093280CD080B99DF91410009164
S3150000391C9DF815209DF816307949042001F064F8BD
S3150000392C08E00420774901F05FF803E004207649AB
S3150000393C01F05AF80134E3B2AB42D7D3BDF82840B4
S3150000394CFDF786FB714903462246042001F06AF80E
S3150000395C04206F4901F066F8042001F027F810B135
S3150000396C08A800F0A7FF6B49042001F03DF821F0F0
S3150000397C17F8044621F00EF8224603466649042041
S3150000398C01F032F8FDF768FD0420644901F04AF8AD
S3150000399C9DF81220FF2A4FF0040003D0604901F075
S315000039AC41F802E05F4901F03DF85A49042001F064
S315000039BC1BF8FDF743FD5C495C4A0346042001F005
S315000039CC13F81BF04DFE5A490246042001F02AF862
S315000039DCFDF73AFD0446FDF73DFD564903462246E2
S315000039EC042001F001F8FDF759FE53490246042064
S315000039FC00F0FAFF0027FDF751FEFDB2854253D2C7
S31500003A0C4E4C4F4EDFF86C9104EB05142846D4F857
S31500003A1C0880FEF77DF803902846FDF745FE002842
S31500003A2C14BFB346CB462846FEF772F801F0DAFF10
S31500003A3C002814BF3046484600904249039A042099
S31500003A4C5B4600F0EFFFA188227B63880091A17989
S31500003A5C019104203C4900F0C7FF002598F804307A
S31500003A6CECB2A3421ED9D8F80060384A3849142360
S31500003A7C5C433319042093F90CE0364B12EA2E0200
S31500003A8C38BF1A46335B00F0CDFF042000F08EFFE2
S31500003A9C10B1305B02F046F804202F4900F0A4FF69
S31500003AAC0135DBE70137A6E72C492D4C0122042012
S31500003ABC00F09AFF002000F033FB2A4B2A49042021
S31500003ACC002200F091FF236853B11A78274904208D
S31500003ADC00F08AFF236826495A78042000F084FFF8
S31500003AEC00F025FB0FB0BDE8F08F00BF6744030064
S31500003AFC82440300AE440300894403009F44030040
S31500003B0CA6440300C344030017570300CE44030026
S31500003B1CEC44030019E40200F544030016450300C7
S31500003B2CBA760300214503002945030037450300F7
S31500003B3C404503005445030063450300E42D002073
S31500003B4C3E4403006E4503008E4503004F440300BC
S31500003B5CC04503005B440300E77C0300D745030024
S31500003B6C3C210020EF450300E3450300FD4503001F
S31500003B7C0F4603004644030008B50020FFF76AFB16
S31500003B8CBDE8084080B200F09DBF08B50020FFF7E5
S31500003B9C61FBBDE8084080B200F0A6BF10B500245A
S31500003BAC054B1434234453F8142C22B10420034936
S31500003BBC00F01AFFF4E710BD9C3B03008C61030078
S31500003BCC06F046B808B50020FFF744FB054B1A78FB
S31500003BDC10F0FF0F14BF42F0010222F001021A701E
S31500003BEC08BD00BFB020002070B514F09DFB002569
S31500003BFC0646EBB20D4A52F83340ACB10C4A0D49AD
S31500003C0C52F82320012000F00DFF237823B9012060
S31500003C1C094900F0E9FE05E0626808490120921B9B
S31500003C2C00F0E2FE0135E4E770BD00BFBCE0020027
S31500003C3C481A0020284603002F4603003846030086
S31500003C4C2DE9F0410025FDF729FDECB2844219D28D
S31500003C5C0D4F2601204617F80680FDF725FD0B4A69
S31500003C6C0B4B0C49002808BF13464246012000F0B6
S31500003C7CD9FEB85DFDF74DFC0120074900F0B4FEF6
S31500003C8C0135E0E7BDE8F081E42D0020684703002C
S31500003C9C5E4703003E460300E77C030008B50020A0
S31500003CACFFF7D8FA094B1B681B681978A1F1650355
S31500003CBC59425941C0B2FEF701F928B9012004490D
S31500003CCCBDE8084000F090BE08BD00BF0C2E0020D9
S31500003CDC494603000B0A43EA012189B24840C0F366
S31500003CEC03114140080380B24840C3B280EA431036
S31500003CFC70470000014B1878704700BF2E2100203A
S31500003D0C014B1870704700BF2E21002017F018BF0A
S31500003D1C38B5A0F1430305460A2B30D8DFE803F08B
S31500003D2C060A0A12122F2F2F2F2F3500BDE8384006
S31500003D3C13F010BF13F0DAFE20B113F00BFF0028BE
S31500003D4CFBD138BD114C2078F8B90123443D2370C2
S31500003D5C0DF0DCFE032D0BD8DFE805F00E0E050288
S31500003D6C40F6010001E040F6020014F0ADFA03E063
S31500003D7C0748752105F062F80023237038BD044806
S31500003D8C8721BDE8384005F059B838BD2F210020F1
S31500003D9C634603007047704770477047704770471B
S31500003DAC70477047704770477047002070477047E0
S31500003DBC70477047704770477047704700207047D0
S31500003DCC70477047704700207047704770477047C0
S31500003DDC70477047704770472DE9F04100245FFA31
S31500003DEC84F840461BF0DCFCFF2806461C4D05D12A
S31500003DFC28781C49224606F063FA28E01A4BDFF8AD
S31500003E0C84E053F82420194B194947B233EA2703A7
S31500003E1C28BF7346287806F053FA002F17DA14B128
S31500003E2CB8F1030F08D1134B1349287816F0010F7C
S31500003E3C08BF194606F044FA0A2C08D10F4B104954
S31500003E4C287816F0010F08BF194606F039FA2878BB
S31500003E5C01340DF0F3F9142CC1D1BDE8F08100BF8B
S31500003E6C931A002071470300E0460300D24D03006D
S31500003E7C994703004A47030034470300664703008B
S31500003E8C5C470300E77C03008842F0B503D8044680
S31500003E9C0B46154629E0531E97086FF00305184488
S31500003EAC194407FB055504460E460544043CAC4232
S31500003EBCA6F1040608D033792371F378E370B3784E
S31500003ECCA37073786370F1E76FF003037B431944B7
S31500003EDC02F00302013318448A1A914204D011F8F5
S31500003EEC013900F8013DF8E7F0BD032D04F1040497
S31500003EFC03F1040312D913F8046C04F8046C13F8D8
S31500003F0C036C04F8036C13F8026C04F8026C043DA1
S31500003F1C13F8016C04F8016CADB2E6E793089B004C
S31500003F2C194402F00302013B18440A44914204D09E
S31500003F3C11F8013B00F8013FF8E7F0BD22B1013A58
S31500003F4C00F8011B92B2F9E7704710B50138013938
S31500003F5C5AB110F8013F11F8014FA34202D01A1BB7
S31500003F6C90B203E0013A92B2F2E7104600B210BDED
S31500003F7C10B5013801395AB110F8013F11F8014F4B
S31500003F8CA34202D01A1BD0B203E0013A92B2F2E776
S31500003F9C104640B210BD00000A4B10B500241C7030
S31500003FACFDF756F8084B2146188052220748FFF7B2
S31500003FBCC5FF074B07481C8021460C22BDE8104064
S31500003FCCFFF7BCBF7D2100204E2E0020502E002076
S31500003FDC402E0020422E002007490B88512B9FBFF4
S31500003FEC064AD05401339BB29DBF0B8003F1FF33BD
S31500003FFC98180020704700BF402E0020502E00203D
S3150000400C38B50546C0B2FFF7E7FF0446280AFFF7A6
S3150000401CE3FF24B1002814BF2046002038BD2046FB
S3150000402C38BD000070B50B4E034630884218512A35
S3150000403C0D460CDC084C194620442A46FFF724FF93
S3150000404C32882A4493B233805B1B181970BD00204A
S3150000405C70BD00BF402E0020502E002010B5CC188D
S3150000406C944201DC002206E0022009491A4600F0BF
S3150000407CBBFC002010BD43B144181C44013B14F892
S3150000408C014CDBB204EB0222F5E7104610BD00BF73
S3150000409C8E4803000423FFF7E1BF08B50223FFF7A0
S315000040ACDDFF80B208BD00008A4210B503D802209D
S315000040BC0A490B4A0BE0435CFF2B08BF00230B4459
S315000040CC934200EB010406DB0449064A022000F089
S315000040DC8BFC054810BD204610BD00BFA54803004B
S315000040ECB3480300C4480300382100200078FF2899
S315000040FC08BF0020704708B500210222FFF7CDFF4C
S3150000410C4FF6FF73984208BF002008BD024B034AC6
S3150000411C1A600020704700BF3C210020F5E5020024
S3150000412C002814BF70200020704700207047002024
S3150000413C70477047014B1878704700BFE42D00207C
S3150000414C08B5FDF759FCFF280CBFFF20002008BD61
S3150000415C08B5FFF7F5FFFF280CBFA320002008BD0C
S3150000416C002303707047FCF788B910B5002118229C
S3150000417C0446FFF7E3FE2046FEF740FD0020FFF75E
S3150000418C69F8E0720120FFF769F8A0720220FFF7C8
S3150000419C61F82081FFF754F8032809D90320FFF7AB
S315000041AC59F8E37AC0B203F01F0343EA4010E072F9
S315000041BC10BD00007FB500211822684629F0FFFCCF
S315000041CC6846FFF7D2FF6846FCF720FE0449054A0D
S315000041DC0346042000F008FC07B05DF804FB00BFA2
S315000041EC0D490300ED79030010B50020FFF732F8F6
S315000041FC041C4FF0010018BF0124FFF72BF80849E7
S3150000420CA222002818BF014620461DF073FA054964
S3150000421C054A0346BDE81040042000F0E5BB00BF8C
S3150000422C00F8FF070D4903008604030070B5002053
S3150000423CFFF710F804460120FFF70CF8054602209C
S3150000424CFFF708F8E4B2C2B2201C294618BF0120B9
S3150000425C1DF0A9FA0349044A0346BDE87040042040
S3150000426C00F0C2BB0D4903001549030004200149A7
S3150000427C00F0BABB2A49030008B50C490020FFF729
S3150000428C44F80A48FEF700FD0420094900F0CAFB71
S3150000429C042000F08BFB10B1044800F00BFB04204B
S315000042AC0449BDE8084000F09FBB00BF7521002003
S315000042BC45490300E77C030010B51EF0ABFD04492D
S315000042CC044A0346BDE81040042000F08DBB00BF35
S315000042DC0D490300AA2F030010B50020FEF7BAFF04
S315000042EC002104464FF0FF30FEF7D0FF0178A1F114
S315000042FC62035942E0B25941BDE81040FCF73EBB9F
S3150000430C08B5FEF7C3FC03490246BDE80840012088
S3150000431C00F06ABB5349030008B5FEF765FC034978
S3150000432C0246BDE80840012000F05EBB6749030069
S3150000433C10B50020FEF78EFF0121C4B2A140FE226B
S3150000434C00234FF6FF7023F0EFFD22460346034988
S3150000435C0420BDE8104000F047BB00BF79490300BC
S3150000436C07B502A8032320F8043D1DF04FFF0449AE
S3150000437C0246042000F038FB03B05DF804FB00BFD6
S3150000438C9649030008B50020FEF764FFC0B228B1B9
S3150000439C01200449BDE8084000F026BB024B18700A
S315000043AC08BD00BFB24903004021002007B568468E
S315000043BCFDF732F8FCF74CFE08490246012000F0E6
S315000043CC31FB684600F076FAFCF744FE04490246D7
S315000043DC012000F009FB03B05DF804FBC84903009B
S315000043ECE149030073B50020FEF734FFC6B2012085
S315000043FCFEF730FFC5B20220FEF730FFC4B2FEF75F
S3150000440C1FFF032804D90320FEF724FFC0B200E0E7
S3150000441C00200090314601202A4663B227F0FCFAB0
S3150000442C30B90849012002B0BDE8704000F0DCBA92
S3150000443C00900549054A064B012000F0D5FA02B05A
S3150000444C70BD00BFF14903000D4A0300C60303000B
S3150000445CF949030007B5012027F0E0FA034638B9FD
S3150000446C0849094A012003B05DF804EB00F0BCBA18
S3150000447C00900649064A044B012000F0B5FA03B039
S3150000448C5DF804FB224A0300F94903000D4A0300B8
S3150000449C22040300037813F0050F37B5044622D027
S315000044AC4388062B0AD1826883885268144912788D
S315000044BC00920420134A00F097FA14E02BB904205A
S315000044CC1149A28800F090FA0DE0012B0BD18568FA
S315000044DC0E49042000F0A6FA284600F0EBF9042059
S315000044EC0B4900F081FA2378012B07D00949054ABC
S315000044FC042003B0BDE8304000F076BA03B030BDFE
S3150000450C4C4A0300291E0300684A0300844A030030
S3150000451CE77C03009C4A03000B4B0C491B6810B547
S3150000452C1B681B78652B0A4B0CBF012200221A70E4
S3150000453C1C78084A084B0420002C08BF1A46BDE814
S3150000454C104000F051BA00BF0C2E0020AE4A0300FA
S3150000455C921A00206DFF020033FF0200FEF78CBB9F
S3150000456C13B50020FEF776FE04460120FEF772FE18
S3150000457C054B06491B88009182B2A1B2184601234D
S3150000458C00F03CFF02B010BD641B0020A1440000EB
S3150000459C2DE9F047344D0FCD8EB009AC0FC42B6806
S315000045AC32492360042000F01FFA00263446FCF73B
S315000045BC49FFF5B285424CD2284605A913F0DEFB1D
S315000045CC024600283FD19DF81430032B84BF0423E8
S315000045DC8DF814309DF81430002B38D00420244963
S315000045EC2A4600F01FFA9DF8143022490EAA02EB57
S315000045FC8303042053F8142C00F014FA28469DF873
S3150000460C21809DF815709DF818A0BDF8169013F032
S3150000461CADFBCDF800A00290CDF80490042016490D
S3150000462C42463B46013400F0FDF90420E4B200F0AA
S3150000463CBDF918B10DF1190000F03CF904200F4931
S3150000464C00F0D2F903E004200D4900F0CDF9013653
S3150000465CADE7FCF7F7FE0B4903462246042000F0B3
S3150000466CC3F90EB0BDE8F087384A0300B84A030018
S3150000467CA14403008C610300E54A0300E77C0300B8
S3150000468C064B0300264B030013F054BD08B500205F
S3150000469CFEF7E0FDBDE80840C0B2FCF713BD000014
S315000046AC084B1B681B685B78652B01D1002006E064
S315000046BC6E2B01D1012002E0662B02D1022001F003
S315000046CCB5BA70470C2E0020054B1B681B685B782F
S315000046DCA3F1660253425341024A1370704700BF5E
S315000046EC0C2E00208E1B002010B5002086B0FEF785
S315000046FCB1FD694604460120FEF707FE02A9102209
S3150000470C01230220FEF7DEFDE1B200206A4602AB71
S3150000471C16F078FC0446042000F048F918B1054858
S3150000472C2146FCF70DF90420034900F05DF906B0AB
S3150000473C10BD00BF3D4B0300E77C030010B58CB0E9
S3150000474C07A9122200230220FEF7BCFD03AA01468C
S3150000475C07A8FCF7E3FE044670B1BD2C4FF004002D
S3150000476C01D1134920E0022C01D112491CE0124957
S3150000477C224600F039F919E001A90120FEF7C5FD22
S3150000478C2046FEF767FD01AAC1B203AB204616F020
S3150000479C39FC0446042000F009F918B107482146F3
S315000047ACFCF7CEF80649042000F01EF90CB010BD3B
S315000047BC4A4B03006D4B0300A84B03003D4B030013
S315000047CCE77C03007FB50020FEF744FD044602207B
S315000047DCFEF740FDC6B23046FFF7BAFCE4B205461A
S315000047ECE8B901208DF80000FEF734FDADF80200A3
S315000047FC03208DF80160FEF72DFD0DF105018DF8F6
S3150000480C04000420FEF781FD16F041FB69468DF885
S3150000481C0D00204613F018FB0546FFF788FC042014
S3150000482C034922462B4600F0DFF804B070BD00BFEA
S3150000483CC74B03002DE9F84380460F4616469946AA
S3150000484C00F0B4F898B13E443D46EC1BB542A4B218
S3150000485C0DD04046494615F8012B04F00F0400F024
S3150000486CE1F8062CF1D1404600F0B4F8EDE7BDE8CE
S3150000487CF883000030B5054C054D002B14BF2B46B4
S3150000488C2346BDE83040FFF7D5BF00BF4F580300A5
S3150000489CF74B030070B5054608460C46FFF726FC99
S315000048AC611C82B2024B2846BDE87040FFF7C2BFBE
S315000048BCDC60030000B5024689B00C4B9179188870
S315000048CCD37900915179019111790291D1780391A3
S315000048DC91780491517805911278069204493E22FA
S315000048EC00F0A0F809B05DF804FB00BF42210020DF
S315000048FCFB4B03002DE9F04106460F46904600247B
S3150000490CB4421AD00E4D0F4B288807EBC40108226F
S3150000491CFFF790FF01342888B8F1000F05D10A4A39
S3150000492C0A4BB44208BF1A4600E0084A084900F090
S3150000493C79F8288800F04EF8E2E7BDE8F08100BF70
S3150000494C42210020F74B0300E77C0300B843030029
S3150000495C8B610300014600220220FFF7CBBF00004B
S3150000496C70B50F4C0646208800F020F8B0B1002533
S3150000497C0123F2070DD51BB920880A4900F052F81D
S3150000498C208809492A4600F04DF8208800F022F8C4
S3150000499C002301351B2D4FEA5606EAD170BD00BF28
S315000049AC42210020E9E20200CA6103004FF6FF72C1
S315000049BC90424FEA102307D043B9054B1B78184297
S315000049CC14BF01200020704701207047002070475B
S315000049DC661B002008B5FFF7E9FF20B12020BDE8D3
S315000049EC08400CF02BBC08BD0EB477B507AC0546D9
S315000049FC54F8046B0194FFF7D9FF50B131462246A7
S31500004A0C202005F070FC2020044905F045FC044BE1
S31500004A1C1D8003B0BDE8704003B07047B843030077
S31500004A2C422100200EB477B507AC054654F8046B4A
S31500004A3C0194FFF7BBFF30B120203146224605F02A
S31500004A4C52FC034B1D8003B0BDE8704003B07047A9
S31500004A5C4221002037B5002401200E4BA04080B225
S31500004A6C53F82450FFF7A2FF0B4B0C4A0C490028B5
S31500004A7C14BF10461846009022462B46202005F0FF
S31500004A8C1FFC013420200CF0D9FB042CE4D103B01C
S31500004A9C30BD00BF5C4C03001F4C03001B4C0300D5
S31500004AAC224C03000248FF210122FFF747BA00BF40
S31500004ABC661B0020024800210122FFF73FBA00BF07
S31500004ACC661B0020430103F47F4200F0070001231C
S31500004ADC834013449BB21A0A01BF02490A78134356
S31500004AEC0B707047661B0020430103F47F4200F0F5
S31500004AFC07000123834013449BB21A0A01BF0349E2
S31500004B0C0A7822EA03030B70704700BF661B00206D
S31500004B1C13B503680446587900F064FF78B9236826
S31500004B2C5A88032A0BD05B790092E27C0192012011
S31500004B3C0849094AFFF758FF2046012105E020469F
S31500004B4CFDF7EDFF014610B1204601F06AF9012090
S31500004B5C02B010BD704C030033FF02002DE9F04F7C
S31500004B6C427D036890F813908768868990F814B094
S31500004B7CB3F80280002A89B00CBF40228022054679
S31500004B8C5879049200F02EFFC8B9B9F1000F16D06F
S31500004B9CA9F10203012B12D9B9F1050F0FD0B8F107
S31500004BAC030F0CD00120AB49FFF71EFF0220AA49C8
S31500004BBCAA4A4B46FFF718FF284601213EE2EB7B3B
S31500004BCC1BB12A8A002A00F03382A54A00211180E3
S31500004BDC697D002992460CBF0820002013B140F0D5
S31500004BEC0400C0B2FFF7F8F9EB7B13B1288AFFF784
S31500004BFC07FAA87C1FFA8BF4FFF7EEF9B9F1160F3A
S31500004C0C00F21682DFE819F0170037019D00460006
S31500004C1C74019D0021017C01300184018C019401F9
S31500004C2CF400A801140214021402BB01E601BB0134
S31500004C3CFD01F400A8010120FFF7CEF9631CB34275
S31500004C4C80F2C581214632463846FFF726FA2B6894
S31500004C5C814658792B8A0093BAF80030C3F1520377
S31500004C6C9BB2019341464A46049BFCF7DCFC70B9A7
S31500004C7C2B6858792B8A0093794B1B88C3F1520306
S31500004C8C9BB2019341464A46049BFDF7C3FBA21C0B
S31500004C9C94B2D3E70420FFF79FF900230593A31CD6
S31500004CACB34242DA384621463246FFF7F6F93B194B
S31500004CBC069093F802B05846FCF700FD38B1E01C9C
S31500004CCC3844FFF713FA01305FFA80FA03E05846CE
S31500004CDCFCF7BAFC82465846FCF7F0FC30B104EB04
S31500004CEC0A026FF002039B1ADE420FD42B68069A57
S31500004CFC58792B8A0093E31C3B440193CDF808B0FA
S31500004D0C4146049BFDF7D0FA50B100E08020059B8C
S31500004D1C0133DBB20593FFF75FF90698FFF770F9DD
S31500004D2C0AF10302224494B2B9E7059B002B40F02A
S31500004D3C4E81EB7B2C7D002B494B14BF04220222A7
S31500004D4C1A800420FFF748F94FF0000AD346E31CFB
S31500004D5C9E423BDD2146324638460693FFF79DF9C7
S31500004D6C3A190790937805931846FCF7A7FC069B0F
S31500004D7C30B1F818FFF7BAF90130C3B2069303E065
S31500004D8C0598FCF761FC06902B68079A58792B8AD4
S31500004D9C0093E31C3B440193059B02934146049B01
S31500004DACFDF73AFA20B90AF101035FFA83FA08E033
S31500004DBC0BF1010BFFF710F907985FFA8BFBFFF766
S31500004DCC1FF9069A0332224494B2C0E7B9F1050FD3
S31500004DDC00F03681BBF1000F40F0F980BAF1000FFC
S31500004DEC02D12846802129E15846FFF7F5F8EEE076
S31500004DFCB9F10C0F0CBF0D201620FFF7EDF8384655
S31500004E0C21463246FFF749F95F44B9F1150F0246C0
S31500004E1CBC7802D1132C28BF132400200592BAF8B3
S31500004E2C0060FFF7D9F82B68059A58792B8A8DE81C
S31500004E3C1800A9F115046342634102934146049B91
S31500004E4CFDF7B8F8074B9855C1E028460BF0C4FAA5
S31500004E5C0DE000BF464403009A4C030033FF0200EA
S31500004E6C402E0020502E002028460BF0CBF80028B0
S31500004E7C00F0DE80E4E0B8F10A0F07EB0B092BD14A
S31500004E8CDFF8C8A19AF8003033B3EB7B23BBCBEB2E
S31500004E9C060BBBF1080F1FD1384621463246FFF7E9
S31500004EACFCF8C8B999F802B0BBF1000F14D199F807
S31500004EBC0330E22B10D1211D89B232463846FFF75A
S31500004ECCE9F800F0C1FC00F0C1FC5F490246022083
S31500004EDCFFF78AFD8AF800B0321B4046494692B26B
S31500004EECFCF7AEFB002840F0AB8028460021A5E07D
S31500004EFC321B404607EB0B0192B2FDF7CCFEF1E7F5
S31500004F0C321B404607EB0B0192B2FDF75FFEE9E759
S31500004F1C321B404607EB0B0192B2FDF7AAFEE1E706
S31500004F2C321B404607EB0B0192B2FCF78BFBD9E721
S31500004F3C0134A4B22B6817F80B603C5D5879049BBE
S31500004F4C0093414632462346FCF7EAFE404631467C
S31500004F5C2246FDF73DFE73E0A9F1160017F80B107B
S31500004F6C621C434292B24341B41A0031009340464C
S31500004F7C18BF01213A44A3B2FDF72CFEB2E717F88D
S31500004F8C0B605F44B9F1110F7F7804D11220FFF743
S31500004F9C23F8002003E01420FFF71EF80120BAF8CE
S31500004FAC0040DFF8AC900296C4F1510292B2631C39
S31500004FBC8DE804044B44039729464246FCF7B0FFA0
S31500004FCCBAF8003009F804000133AAF8003000F0F2
S31500004FDCD9FE35E017F80B20631C9BB20032A6EB0A
S31500004FEC030618BF0122B6B20021C8B2B04201F1C5
S31500004FFC0101FAD3298A009640463B44FDF7EEFDA3
S3150000500C70E717F80B20631C9BB20032A6EB030665
S3150000501C18BF0122B6B20021C8B2B04201F101019B
S3150000502CFAD3298A009640463B44FDF7D5FD59E74D
S3150000503CEB7B002B284614BF8421822100F0F1FE65
S3150000504C012009B0BDE8F08FB64C030044210020C6
S3150000505C502E002082B2064B0AB94BF6EF621A802C
S3150000506C000C044B0ABF4FF6CE2218801A807047EC
S3150000507C681B00206A1B0020094B1888020448BFD5
S3150000508C80F0620042001A80064A1388190444BF55
S3150000509C83F4805383F00B035900118058407047FA
S315000050AC681B00206A1B0020034B1870034B1970F9
S315000050BC034B00221A70704747210020452100201F
S315000050CC462100200C4B13B51B681B681B78672BFD
S315000050DC03D101A814F0CAFF0CE00020FEF7BAF8C1
S315000050EC04460120FEF7B6F801A9ADF804002046E7
S315000050FC14F08CFF02B010BD0C2E002008B51AF06F
S3150000510CAFFA30B101200D490D4ABDE80840FFF752
S3150000511C6BBC0C4B0C4A1B681B6819780B4B6C2927
S3150000512C0CBF1146194601231022FEF7CBF80220BC
S3150000513C0749BDE80840FFF757BC00BFCE4C03003B
S3150000514CECE202000C2E00207C1B00206C1B0020C5
S3150000515CE44C0300F0B507468BB018B9FCF770F9B0
S3150000516C064600E0012602202149FFF73DFC0025FA
S3150000517C2C46B44239D237B10120694614F0E8F80E
S3150000518C68B3FE2428E02046694615F037FF18BBA5
S3150000519C012018492246FFF745FC0120FFF706FCC3
S315000051AC18B10DF11D00FFF785FB069A1249012077
S315000051BCFFF738FCBDF80030104913F0100F4FF014
S315000051CC010014BF79226E22FFF72CFC0DF10300AF
S315000051DCFFF7C0FB0135EDB20134E4B2C9E701209B
S315000051EC0749FFF71FFCFE24D7E728460BB0F0BD96
S315000051FCEC4C0300374D0300214D0300294D0300F1
S3150000520C3F4D030000B58BB00120694614F0A0F8A1
S3150000521C08B9059801E04FF0FF300BB05DF804FBC0
S3150000522C10B58AB0684614F021FF38B9BDF80030C5
S3150000523CDB0703D401202349FFF7D6FB032069467D
S3150000524C14F086F820B16846FF212822FEF776FE78
S3150000525C059B1D491D4A0120FFF7C6FB9DF81C3016
S3150000526C1B491A4A0120FFF7BFFB1A49174A0120AE
S3150000527CFFF7D8FB0DF10300FFF76CFBFFF7C2FF3E
S3150000528C1149154A03460120FFF7AEFB1349124A92
S3150000529C0120FFF7A9FB0120FFF75CFF10490E4A1E
S315000052AC0120FFF7A1FB0020FFF754FF0446FCF793
S315000052BCC7F80C49034622460120FFF795FB0AB0B6
S315000052CC10BD00BF464D03007E4D03008D4D0300FF
S315000052DC954D0300DD530300F37D0300A64D03003B
S315000052ECAC4D0300B54D030010B50020FDF7B2FF21
S315000052FC041C18BF012420461DF06CFB054B064A06
S3150000530C0649002C08BF1A460120BDE81040FFF7DD
S3150000531C6BBB00BFCE4D0300C94D0300D74D030038
S3150000532C08B50020FDF796FF044B05491880024688
S3150000533C92B20120BDE80840FFF756BB761F00204D
S3150000534C184E030010B5012404704FF6FB74A142ED
S3150000535C9CBF6FEA43436FEA5343038142600821C3
S3150000536C0348FEF700FF0420BDE81040FDF726BCFD
S3150000537CA42E002030B585B00446FEF7D1FE0C20D5
S3150000538C114B604300241D181C541048FEF7E8FE10
S3150000539C0420FDF777FC6A6892B12B89039413F409
S315000053AC004FC3F30E0314BF02212146ADF806309D
S315000053BC4FF6FF738DF80410ADF8083001A890472E
S315000053CCFEF7B5FE05B030BD48210020A42E002006
S315000053DC38B50446436808460D469847B4F9083074
S315000053EC002B02DB2B78042B07D10023636015F00E
S315000053FC4EFDBDE83840FFF7BDBF38BD2DE9F8437B
S3150000540C1C4605468946904615F041FD0C26104F64
S3150000541C4643BB5DABB94FF6FD734FF6FB72954237
S3150000542C88BF1D46284623464946424600F05EF98B
S3150000543C044648B9B8192946089A0623FFF782FF8D
S3150000544C02E07020BDE8F8832046BDE8F88300BF73
S3150000545C48210020F8B50E46054615F018FD0C231C
S3150000546C0B4A58431718115C69B928460A4640235B
S3150000547C22F051FD044640B93846294632460123EE
S3150000548CFFF760FF01E07020F8BD2046F8BD00BFB5
S3150000549C4821002070B50D46044615F0F8FC0C2387
S315000054AC0B4A58431618115C69B920460A4622F075
S315000054BCDDFD044648B930464FF6FC712A462346B4
S315000054CCFFF740FF01E0702070BD204670BD00BFA5
S315000054DC482100200020FFF74DBF00002DE9F047C2
S315000054EC9CB014461D468A4615F0D1FC0C237E4A08
S315000054FC43438046D65CD7189146002E00F0F080C8
S3150000550CBAF80010002940F0EA803A89BAF802305D
S3150000551C42F40040834240F0E0806178002940F07C
S3150000552CDF80A3F50043062B00F2D980DFE813F0E9
S3150000553C96009600D700D7000700B6007000E179F8
S3150000554CA379E07A8DF80C0003EB0123ADF81C303F
S3150000555C617A237A03EB0123811D0D3DADF81E30D4
S3150000556C14F811E063798DF8203015F001058DF8EB
S3150000557C14E040F0B5800DF1240CCDF810C004F108
S3150000558C0C082B465FFA83F9814508F1020809D20B
S3150000559C18F801AC18F8029C09EB0A292CF81390A0
S315000055AC0133EFE74B0001330CEB400103F0FF0333
S315000055BC06915FFA85FC0CEB0001F445C9B211D2D9
S315000055CC0DF1700C0CEB410104EB030C01359CF84E
S315000055DC018014F803C002330CEB082C21F84CCCD8
S315000055ECDBB2E6E712F4004F14BF03230123E17884
S315000055FC8DF80030A37803EB0123ADF80430C2F329
S3150000560C0E0203ABADF8022002933846694622E03F
S3150000561C042D65D92079A178E378053DADB2A84271
S3150000562C5ED100285CD012F4004F01EB03238DF8F9
S3150000563C0C0004F1050414BF03200120C2F30E0272
S3150000564CADF8283003AB04948DF82400ADF8262071
